:100000000C9459000C9408020C942D020C948C0052
:100010000C948C000C948C000C948C000C948C0030
:100020000C948C000C948C000C948C000C948C0020
:100030000C948C000C948C000C948C000C948C0010
:100040000C948C000C948C000C94DF090C948C00A4
:100050000C948C000C948C000C948C000C948C00F0
:100060000C948C000C948C00464154414C20455219
:10007000524F523A204241444953525F766563746D
:100080002063616C6C65642C20756E70726F6365A3
:100090007373656420496E746572727570742E0A8C
:1000A00053544F5020457865637574696F6E2E0AFE
:1000B0000000832D8093E10784B78093E20714BE8C
:1000C0000FB6F894A89580916000886180936000D5
:1000D000109260000FBE11241FBECFEFD8E0DEBF2C
:1000E000CDBF14E0A0E0B1E0E2E6FDE102C0059082
:1000F0000D92AE31B107D9F727E0AEE1B4E001C00F
:100100001D92A13EB207E1F70E948E000C94AF0E43
:100110000E94B0000C94AF0E0C94F2080E945202A0
:100120000C947D03809100010E944B01892B61F0AA
:100130008CE291E00E94020C84E491E00E94020CA7
:10014000809101010C94620186E591E00E94020C0D
:100150008CE691E00E94020C809101010C947501E3
:100160000F931F93CF93DF93CDB7DEB7C058D1095C
:100170000FB6F894DEBF0FBECDBF63E080910101E2
:100180000E94120100E010E022E930E041E062E06C
:10019000809100010E948B01809100010E94F60174
:1001A00040E850E0BE016F5F7F4F80E090E00E942A
:1001B000CA0580E090E0C058DF4F0FB6F894DEBF6C
:1001C0000FBECDBFDF91CF911F910F910895823364
:1001D00021F0833321F481E0089580E008958FEFCA
:1001E000089591E09093960724E0829FC001112426
:1001F000DC01A25EBB4FED91FC91119712968D919F
:100200009C91139709958091900490919104892B6A
:1002100031F00E94A103109296070E948A08109262
:1002200096070895982F9F7021E030E001C0220FBB
:100230009A95EAF76230D9F0633079F0611128C0FD
:1002400082958F7093E0899FF001112481A1209500
:10025000822381A382A1282317C082958F7093E007
:10026000899FF001112481A1282B21A30EC0829522
:100270008F7093E0899FF001112491A1822F8095C6
:10028000892381A382A1282B22A380E090E00895F6
:100290008FEF9FEF0895E82FE295EF7063E0E69F00
:1002A000F001112440A150E0982F9F7021E030E030
:1002B000B90102C0660F771F9A95E2F7CB0184233C
:1002C00095230895E82FE295EF7093E0E99FF00100
:1002D000112432A1282F2F7081E090E001C0880FF7
:1002E0002A95EAF7832B82A30895E82FE295EF7011
:1002F00093E0E99FF001112432A1282F2F7081E0B3
:1003000090E002C0880F991F2A95E2F7809590959A
:10031000832382A30895BF92CF92DF92EF92FF9240
:100320000F931F93CF93DF931F92CDB7DEB7D82ED5
:10033000B42E790169830E94E700C82E6981862F57
:100340008D7F09F046C0C7FC44C083E08B1508F4DC
:1003500040C08D2D0E941201F8948CB3EC2D0C2C12
:10036000000CFF0B21E030E00C2C01C0220F0A949E
:10037000EAF7822B8CBB8DB3282B2DBB83E08C1529
:10038000D4F020916900BF01660F771F83E090E0F1
:10039000062E01C0880F0A94EAF780958223809385
:1003A0006900809169004B2D01C0440F6A95EAF7FE
:1003B000482B40936900EE0FFF1FEE0FFF1FE25E18
:1003C000FB4FF182E08213830283789480E090E017
:1003D00002C08FEF9FEF0F90DF91CF911F910F9190
:1003E000FF90EF90DF90CF90BF9008950E94E700BC
:1003F0004CB321E030E0B90102C0660F771F8A9547
:10040000E2F7CB01462B4CBB9DB3892B8DBB0895E6
:100410001F920F920FB60F9211242F933F934F9379
:100420005F936F937F938F939F93AF93BF93EF935C
:10043000FF9380E00E94F100FF91EF91BF91AF9197
:100440009F918F917F916F915F914F913F912F91EC
:100450000F900FBE0F901F9018951F920F920FB61E
:100460000F9211242F933F934F935F936F937F933A
:100470008F939F93AF93BF93EF93FF9381E00E947D
:10048000F100FF91EF91BF91AF919F918F917F917B
:100490006F915F914F913F912F910F900FBE0F90F1
:1004A0001F901895E1E6F0E080E8808310820E94BA
:1004B0004E090E94E4080E945E090C940309109200
:1004C000910410929004A0914C04B0914D0420919D
:1004D00026043091270480E090E020FD04C036958A
:1004E00027950196FACF880F991FFC01E65DFB4F17
:1004F0000190F081E02D0190F081E02D3697AE174C
:10050000BF07C9F0109741F012968C9112978A306C
:1005100019F48BE012968C938AE082838481958112
:1005200090934B0480934A04F0934D04E0934C0461
:1005300081E090E0089580E090E008950F931F938C
:10054000CF93DF93FC0182816A30E0F18A3008F0BA
:1005500080C09F012A5F3F4F838190E0880F991FE1
:10056000DC01A65DBB4FCD91DC911197209751F036
:1005700048815981578346830D90BC91A02D2D93BE
:100580003C9302C037832683DC01A65DBB4F2D93CD
:100590003C9381E090E0038002C0880F991F0A9489
:1005A000E2F7092E000CAA0BBB0B00912604109158
:1005B00027042091280430912904802B912BA22B11
:1005C000B32B3FC08A3008F444C0A381B0E0AA0F27
:1005D000BB1FA65DBB4FCD91DC911197209769F0B1
:1005E00088819981C817D90719F41D921C9205C0FA
:1005F000DC018D919C91998388832381A22FB0E0A7
:10060000AA0FBB1FA65DBB4F8D919C91892B09F54D
:1006100081E090E002C0880F991F2A95E2F780954B
:100620009095092E000CAA0BBB0B0091260410918B
:100630002704209128043091290480239123A223A8
:10064000B3238093260490932704A0932804B093A7
:1006500029046283DF91CF911F910F910895E0915A
:100660004C04F0914D04238132813A3020F030E087
:100670008217930768F40E941309892B39F081E0EF
:1006800090E0909391048093900408950C94240832
:1006900008950E94FD08E0914A04F0914B04EE0F8A
:1006A000FF1FE25BFB4F11821082809192049091B8
:1006B00093040197909393048093920460E0809157
:1006C0004C0490914D040E949E0210924D04109291
:1006D0004C040E9420080E9428098FE791E09F9314
:1006E0008F930E94EC0B0E94B0000F900F9080E05F
:1006F00090E008950E94C507FDCF0E94FD08C090BC
:100700000201D0900301E12CF12C0AE713E02CE068
:1007100030E04FE060E870E084E994E00E94EA0392
:10072000C0900401D09005010BE613E02CE030E00E
:1007300047E060E872E084E195E00E94EA030E94ED
:1007400020080E94FD08E0914C04F0914D042281A4
:100750002A3070F0E381F0E0EE0FFF1FE65DFB4F03
:10076000A081B181109721F02D913C91318320839C
:100770000E9409090C942408FB0122812A3028F0E8
:1007800065E072E083E00E94AA046381AF014A5FE2
:100790005F4FDC012D913C912115310541F0D901CC
:1007A000169713967C91671710F0C901F2CF378323
:1007B0002683FC01518340830895FC01208131810F
:1007C0002E173F0711F43296F9CF9F01281B390BE2
:1007D000C90108952F923F924F925F926F927F923C
:1007E0008F929F92AF92BF92CF92DF92EF92FF9241
:1007F0000F931F93CF93DF9300D000D0CDB7DEB718
:10080000522F40310CF08CC09B012A513109DC0180
:10081000A20FB31FBC83AB83FC0153FF09C0AB81A4
:10082000BC81EA17FB0730F4F183E0833296F7CFFF
:100830009183808317013801E52EF42E2B015C0192
:1008400029833A830E94FD084C01E0E5F4E001E0D1
:1008500010E03A81298181919191892B09F040C062
:10086000F801EE0FFF1FE25BFB4F8B819C819183B0
:100870008083DC0115961C930E931497A501B1019A
:10088000C3010E94F307EB81FC8191838083B58AC9
:10089000A48A518E408ED78AC68AF382128217822A
:1008A0001682118610861386128615861486178680
:1008B00016868FEF9FEF918B808B138A128A80911F
:1008C00092049091930401969093930480939204E0
:1008D000E0FE11C061E08B819C810E949E021BC0E2
:1008E0000F5F1F4F0132110509F0B5CFC4010E94FF
:1008F00009098FEB16C06BE08B819C810E949E02E0
:10090000E2FC09C0C4010E9409098F2DFF0C990B5C
:100910000E942F0303C0C4010E940909C80102C03C
:1009200084EE9FEF0F900F900F900F90DF91CF917B
:100930001F910F91FF90EF90DF90CF90BF90AF90FD
:100940009F908F907F906F905F904F903F902F90EF
:1009500008950895CF93DF9300D0CDB7DEB72091EF
:10096000940730919507232B09F039C021E030E03E
:1009700030939507209394078330B1F40EB6202D61
:100980000DB6802D90E0922B9F938F9384EC91E095
:100990009F938F9369837A830E94EC0B0F900F9043
:1009A0000F900F907A8169817F936F938BED91E027
:1009B0009F938F930E94EC0B0E94F50483E092E0DA
:1009C0009F938F930E94EC0B87EF91E09F938F93FF
:1009D0000E94EC0B0FB6F894DEBF0FBECDBF0E9495
:1009E000FD080E94A9040E94C2073F924F925F92A5
:1009F0006F927F928F929F92AF92BF92CF92DF922F
:100A0000EF92FF920F931F93CF93DF9300D0CDB758
:100A1000DEB78FE5898381E58A8387E192E09F9342
:100A20008F938DE192E09F938F9382E292E09F9368
:100A30008F930E94EC0B90E5C92E94E0D92E0F9075
:100A40000F900F900F900F900F90812C912CE12C14
:100A5000F12C2AE6A22E22E0B22EF601019111918C
:100A60006F010115110509F44EC0F8017280E72DE0
:100A7000F0E0EE0FFF1FE45DFC4F60803180F80175
:100A8000408C518CE40CF51C848995890E94DD030F
:100A90009201281B390BC901820E931EF801218196
:100AA0002F9320812F9325892F9324892F939F9310
:100AB0008F93818D8F93808D8F9383811F928F93DE
:100AC00081E090E0F9E0F71510F080E090E021E09F
:100AD00030E02C0F3D1F820F931F9F938F933F9207
:100AE0006F92F80187898F9386898F9385818F9381
:100AF00084818F93BF92AF920E94EC0B0FB6F89453
:100B0000DEBF0FBECDBF30E9C31634E0D30609F017
:100B1000A4CF9F928F92FF92EF9285EA92E09F93EB
:100B20008F939F938F9327EA32E03F932F939F9366
:100B30008F938BEA92E09F938F930E94EC0B0FB6FA
:100B4000F894DEBF0FBECDBF0F900F90DF91CF9115
:100B50001F910F91FF90EF90DF90CF90BF90AF90DB
:100B60009F908F907F906F905F904F903F900895EF
:100B7000CF93DF93CBEDD7E06A817B818EE390E06A
:100B80000E94B40B6A817B8180E290E0DF91CF917B
:100B90000C94B40B2F923F924F925F926F927F9280
:100BA0008F929F92AF92BF92CF92DF92EF92FF927D
:100BB0000F931F93CF93DF93CDB7DEB72C970FB66C
:100BC000F894DEBF0FBECDBF6C017B018A012DB74B
:100BD0003EB738872F830E94B805A80141505109BC
:100BE0005A8749871E0155E0250E311C66E7662E9F
:100BF00063E0762E5701C5018E199F0929853A8534
:100C0000821793070CF094C18091DB079091DC0769
:100C10000E94760B97FD8CC18D309105E1F4D501D2
:100C20001C926091DD077091DE078DE090E00E94DC
:100C3000B40B6091DD077091DE078AE090E00E94BE
:100C4000B40BAE14BF0409F470C1F70120E030E02A
:100C500000E010E050C08A30910509F3883091051A
:100C600019F08F379105F9F4AE14BF0421F2F501A4
:100C700012925F016091DD077091DE0788E090E0DD
:100C80000E94B40B6091DD077091DE0780E290E076
:100C90000E94B40B6091DD077091DE0788E090E060
:100CA0000E94B40BA8CF85010F5F1F4FD5018C9315
:100CB0006091DD077091DE070E94B40B58019BCF55
:100CC0004232E9F48181882381F18C3599F52F5FD7
:100CD0003F4FCF0102965281552339F1FC018081AB
:100CE0008413F0CF8181813200F50F5F1F4F808127
:100CF000181614F5119240814132C8F3E1CF473202
:100D000049F4E0CFFD01319611968C91823269F061
:100D1000813258F3DF0180818C35A1F72F5F3F4F7F
:100D2000DF01119681818111EDCF84E493E00E946F
:100D3000020CFBC03196D3CF0115110509F4F5C0A3
:100D40004DB75EB75E834D83C8010196880F991F2A
:100D5000ADB7BEB7A81BB90B0FB6F894BEBF0FBE98
:100D6000ADBFEDB7FEB731965F01F801EE0FFF1F83
:100D7000EA0DFB1D118210824501F701D50180E0CB
:100D800090E0AF01508031965520D9F3BA01F2E2DC
:100D90005F1619F0E7E25E1203C0BA016F5F7F4F82
:100DA0006D937D93FB016F5F7F4F40814111FACFBF
:100DB00001968017910729F721153105E9F0D40133
:100DC000ED91FD914D013097B9F080818823A1F319
:100DD0008C3581F4BF01CF01DB014D91BD0144236E
:100DE00031F0DB014C91DC014D93CD01F5CF215069
:100DF000310911F33196E9CFF50120813181DA8291
:100E0000C9824AE054E05C834B83CE0101962C01F9
:100E1000D2018D909D902D0181149104C1F0F401B7
:100E200080819181009799F0B9012B873C870E94BE
:100E30006D0B2B853C85892B31F4D4011496ED91F3
:100E4000FC91159709C0B6E08B0E911CE8CF4214B7
:100E50005304F1F6E0E0F0E0309721F0B501C8016D
:100E600009955CC0B9018DE593E02B873C870E9412
:100E70006D0B2B853C85892B09F044C082E693E0FD
:100E80009F938F938EE693E09F938F937F926F92C1
:100E90000E94EC0B80E893E00E94020CDA82C98287
:100EA0002AE034E03C832B83AE014F5F5F4F5A0151
:100EB0000F900F900F900F900F900F90D5010D9104
:100EC0001D915D010115110521F4A214B30431F146
:100ED000F5CFD8018D919C910097B9F3F80123814A
:100EE0002F9322812F939F938F937F926F920E94D3
:100EF000EC0B0A5F1F4F0F900F900F900F900F9009
:100F00000F90E7CF3F932F9388EA93E09F938F93BF
:100F10000E94EC0B0F900F900F900F902D813E814F
:100F20000FB6F8943EBF0FBE2DBF0E94B80562CE2B
:100F30004F8158850FB6F8945EBF0FBE4DBF2C96FB
:100F40000FB6F894DEBF0FBECDBFDF91CF911F91DA
:100F50000F91FF90EF90DF90CF90BF90AF909F9058
:100F60008F907F906F905F904F903F902F9008955B
:100F70000E94170980E090E008950E94F50480E047
:100F800090E008950E94FD08FFCF08950E94030994
:100F9000A0914C04B0914D04CD91CDBFDD91DEBF49
:100FA000FF91EF91DF91CF91BF91AF919F918F9181
:100FB0007F916F915F914F913F912F911F910F9171
:100FC000FF90EF90DF90CF90BF90AF909F908F9069
:100FD0007F906F905F904F903F902F901F900F9059
:100FE0000FBE0F900895240F351FF90131974FEA76
:100FF000408331974EEF408349E453E0319740837B
:101000003197508331978083319790833197108245
:10101000319780E8808331971082C9014F971292EF
:10102000E817F907E1F7F901B0976083319770830A
:101030008AE182938F5F8032E1F7C9018897089532
:101040000E945F020E94C6070E941309892B09F0C3
:101050005AC00F920FB6F8940F921F9211242F923C
:101060003F924F925F926F927F928F929F92AF9238
:10107000BF92CF92DF92EF92FF920F931F932F9325
:101080003F934F935F936F937F938F939F93AF9310
:10109000BF93CF93DF93EF93FF93A0914C04B09154
:1010A0004D040DB60D920EB60D920E945F02A091F6
:1010B0004C04B0914D04CD91CDBFDD91DEBFFF91C9
:1010C000EF91DF91CF91BF91AF919F918F917F91E0
:1010D0006F915F914F913F912F911F910F91FF90D1
:1010E000EF90DF90CF90BF90AF909F908F907F90C8
:1010F0006F905F904F903F902F901F900F900FBE7A
:101100000F900895089581E090E09093910480936A
:10111000900408950F920FB6F8940F921F92112425
:101120002F923F924F925F926F927F928F929F92F7
:10113000AF92BF92CF92DF92EF92FF920F931F93E5
:101140002F933F934F935F936F937F938F939F93CF
:10115000AF93BF93CF93DF93EF93FF93A0914C0492
:10116000B0914D040DB60D920EB60D920E945F0225
:10117000A0914C04B0914D04CD91CDBFDD91DEBF67
:10118000FF91EF91DF91CF91BF91AF919F918F919F
:101190007F916F915F914F913F912F911F910F918F
:1011A000FF90EF90DF90CF90BF90AF909F908F9087
:1011B0007F906F905F904F903F902F901F900F9077
:1011C0000FBE0F9018950895A8950FB6F894A8959E
:1011D00080916000886180936000109260000FBE73
:1011E0000C9488091F920F920FB60F9211242D9A1A
:1011F00068E670E080E00E94AA040FB6802DF894A3
:10120000807890E0089578940FB6802D807890E0F3
:101210000895FF920F93F82E0FB7087FF02AFFBEB4
:101220000F91FF9008958091960790E0089514BE65
:101230008AEA90E0382E0E94FD089CE088E10FB613
:10124000F894A895809360000FBE90936000FFCF44
:101250000895CF93DF931F92CDB7DEB761E070E0C2
:10126000CE0101960E9475098981082E000C990B08
:101270000F90DF91CF910895CF93DF931F92CDB759
:10128000DEB7898361E070E0CE0101960E947B09A0
:1012900080E090E00F90DF91CF9108950E94640963
:1012A000EBEDF7E084E191E09383828386E091E0C7
:1012B000918380838CE194E00C94020C63E085E1DF
:1012C0000E9412012D9808950F931F9302E211E0DE
:1012D0002DE13AE040E855E260E070E080E090E027
:1012E0000E9489091F910F910895AB01BC0182E210
:1012F00091E00C942F0ACF93DF93EB01AB01BC017B
:1013000080E090E00E94D009CE01DF91CF91089556
:1013100008950F931F93CF93DF93E901892BC9F5AC
:101320003093D8072093D7071093DA070093D90793
:101330001092C1001092C00086E08093C200DB01D1
:10134000CA0180589B47A14EBF4F23E0880F991FC9
:10135000AA1FBB1F2A95D1F79A01AB0164E0220FA7
:10136000331F441F551F6A95D1F7BC01CD010E9460
:101370004B0B215031093093C5002093C400CD2B75
:1013800011F088E901C088E08093C10080E090E01E
:1013900002C08FEF9FEFDF91CF911F910F910895C2
:1013A000FB01460F571FE417F50741F08091C0007D
:1013B00085FFFCCF81918093C600F5CF08951F92E1
:1013C0000F920FB60F9211242F933F934F935F9379
:1013D0006F937F938F939F93AF93BF93EF93FF93FD
:1013E00081E0809396076091C600E091D707F09165
:1013F000D8078091D9079091DA07099580919004D8
:1014000090919104892B31F00E94A10310929607CC
:101410000E948A0810929607FF91EF91BF91AF91B9
:101420009F918F917F916F915F914F913F912F91FC
:101430000F900FBE0F901F9018950F931F93CF938F
:10144000DF93EC010E94990A8C01CE0108960E945C
:101450000A0BC801DF91CF911F910F910895CF9290
:10146000DF92EF92FF920F931F93CF93DF93EC01E4
:101470008B017A016C0188E0C80ED11CA701B8016C
:10148000CE010E946F0A009731F461E070E0C6015E
:101490000E94C50AF3CFDF91CF911F910F91FF906A
:1014A000EF90DF90CF900895DC018D919C91119782
:1014B00014962D913C911597A9014F5F5F4F15969A
:1014C0005C934E9314971296ED91FC91139731977C
:1014D0002E233F23FC01E20FF31F80810895CF925A
:1014E000DF92EF92FF920F931F93CF93DF937C01D4
:1014F0006A018B01EA01209781F0F701248135818F
:10150000868197812817390741F0C7010E94540A44
:10151000F80181938F012197EECFC6018C1B9D0BA3
:10152000DF91CF911F910F91FF90EF90DF90CF90BF
:101530000895DC0116962D913C91179714964D91C4
:101540005C91159712968D919C911397241B350BE6
:1015500028173907B9F0ED91FC91119716962D9146
:101560003C911797A9014F5F5F4F17965C934E937D
:101570001697019728233923E20FF31F608380E039
:1015800090E008958FEF9FEF0895EF92FF920F93F1
:101590001F93CF93DF93EC018B010E94FD087C0128
:1015A00088819981892B41F48FEF9FEF99838883FC
:1015B000C7010E9409091FC0012B01F100914C04D1
:1015C00010914D0462E0C8010E949E0288819981B9
:1015D000019641F4C801069699838883F801178221
:1015E000168204C0B801CE010E94BC03C7010E944C
:1015F00009090E94240881E090E005C0C7010E940B
:10160000090980E090E0DF91CF911F910F91FF9049
:10161000EF900895EF92FF920F931F93CF93DF9374
:101620008C010E94FD087C01D801ED91FC9130975E
:1016300039F0EF3FBFEFFB0761F4F8011182108230
:10164000C701DF91CF911F910F91FF90EF900C9404
:10165000090980819181D8018D939C93EF01269790
:101660006BE0CE010E949E02F80180819181892B5E
:1016700021F48FEF9FEF91838083CB81D0E0C7016E
:101680000E940909CE01DF91CF911F910F91FF9028
:10169000EF900C942F03A1E21A2EAA1BBB1BFD0195
:1016A0000DC0AA1FBB1FEE1FFF1FA217B307E40741
:1016B000F50720F0A21BB30BE40BF50B661F771F99
:1016C000881F991F1A9469F7609570958095909579
:1016D0009B01AC01BD01CF010895FB01DC018D919F
:1016E000019080190110D9F3990B0895CF93DF93DE
:1016F000EC012B8120FF33C026FF0AC02F7B2B83F8
:101700008E819F8101969F838E838A8190E029C07C
:1017100022FF0FC0E881F9818081082E000C990B0F
:10172000009719F420622B831AC03196F983E8835D
:101730000EC0EA85FB85099597FF09C02B810196AC
:1017400011F080E201C080E1822B8B8308C02E81E2
:101750003F812F5F3F4F3F832E83992702C08FEF3A
:101760009FEFDF91CF9108950F931F93CF93DF9356
:10177000FB01238121FD03C08FEF9FEF28C022FFD3
:1017800016C046815781248135814217530744F49E
:10179000A081B1819D012F5F3F4F318320838C93C6
:1017A000268137812F5F3F4F3783268310C0EB019F
:1017B000092F182F0084F185E02D0995892BE1F67A
:1017C0008E819F8101969F838E83812F902FDF9141
:1017D000CF911F910F910895A0E0B0E0E2EFFBE000
:1017E0000C94880EAE014B5F5F4FFA0161917191CD
:1017F000AF018091DD079091DE070E94320CE2E09C
:101800000C94A40E0F931F93CF93DF93E091DD0709
:10181000F091DE07238121FF1BC08C01D0E0C0E0E6
:10182000F80181918F016091DD077091DE07DB0186
:101830001896ED91FC911997882331F00995892B21
:1018400079F3DFEFCFEFECCF8AE00995892B19F020
:101850008FEF9FEF02C08D2F9C2FDF91CF911F91B3
:101860000F910895ACE0B0E0E8E3FCE00C94780E52
:101870007C016B018A01FC0117821682838181FF42
:10188000BDC1CE0101964C01F7019381F60193FD94
:10189000859193FF81916F01882309F4ABC1853253
:1018A00039F493FD859193FF81916F01853229F47D
:1018B000B70190E00E94B40BE7CF512C312C20E00F
:1018C0002032A0F48B3269F030F4803259F0833248
:1018D00069F420612CC08D3239F0803339F42160F5
:1018E00026C02260246023C0286021C027FD27C0B5
:1018F00030ED380F3A3078F426FF06C0FAE05F9EEC
:10190000300D1124532E13C08AE0389E300D11245F
:10191000332E20620CC08E3221F426FD6BC1206470
:1019200006C08C3611F4206802C0883641F4F601F6
:1019300093FD859193FF81916F018111C1CF982F04
:101940009F7D9554933028F40C5F1F4FFFE3F9837C
:101950000DC0833631F0833771F0833509F05BC0F9
:1019600022C0F801808189830E5F1F4F4424439475
:10197000512C540115C03801F2E06F0E711CF801B2
:10198000A080B18026FF03C0652D70E002C06FEF1C
:101990007FEFC5012C870E940F0E2C0183012C853F
:1019A0002F77222E17C03801F2E06F0E711CF8015C
:1019B000A080B18026FF03C0652D70E002C06FEFEC
:1019C0007FEFC5012C870E94040E2C012C85206816
:1019D000222E830123FC1BC0832D90E0481659065C
:1019E000B0F4B70180E290E00E94B40B3A94F4CFD7
:1019F000F50127FC859127FE81915F01B70190E0F9
:101A00000E94B40B31103A94F1E04F1A510841147E
:101A1000510471F7E5C0843611F0893639F5F801C3
:101A200027FF07C060817181828193810C5F1F4F06
:101A300008C060817181072E000C880B990B0E5F26
:101A40001F4F2F76722E97FF09C090958095709545
:101A500061957F4F8F4F9F4F2068722E2AE030E0B4
:101A6000A4010E941A0EA82EA81844C0853729F494
:101A70002F7EB22E2AE030E025C0F22FF97FBF2E54
:101A80008F36C1F018F4883579F0B4C0803719F07A
:101A9000883721F0AFC02F2F2061B22EB4FE0DC0C9
:101AA0008B2D8460B82E09C024FF0AC09F2F96603A
:101AB000B92E06C028E030E005C020E130E002C0C9
:101AC00020E132E0F801B7FE07C0608171818281B8
:101AD00093810C5F1F4F06C06081718180E090E0B0
:101AE0000E5F1F4FA4010E941A0EA82EA818FB2DEE
:101AF000FF777F2E76FE0BC0372D3E7FA51450F466
:101B000074FE0AC072FC08C0372D3E7E05C0BA2C98
:101B1000372D03C0BA2C01C0B52C34FF0DC0FE0117
:101B2000EA0DF11D8081803311F4397E09C032FF46
:101B300006C0B394B39404C0832F867809F0B3949D
:101B400033FD13C030FF06C05A2CB31418F4530CE5
:101B50005B18B32CB31468F4B70180E290E03C87C3
:101B60000E94B40BB3943C85F5CFB31410F43B182A
:101B700001C0312C34FF12C0B70180E390E03C87F4
:101B80000E94B40B3C8532FF17C031FD03C088E7CB
:101B900090E002C088E590E0B7010CC0832F867802
:101BA00059F031FF02C08BE201C080E237FD8DE2C7
:101BB000B70190E00E94B40BA51438F4B70180E39C
:101BC00090E00E94B40B5A94F7CFAA94F401EA0D66
:101BD000F11D8081B70190E00E94B40BA110F5CFF8
:101BE000332009F451CEB70180E290E00E94B40B9B
:101BF0003A94F6CFF7018681978102C08FEF9FEF6D
:101C00002C96E2E10C94940EFC010590615070401A
:101C10000110D8F7809590958E0F9F1F0895FC01B5
:101C20006150704001900110D8F7809590958E0F0B
:101C30009F1F0895FA01AA27283051F1203181F120
:101C4000E8946F936E7F6E5F7F4F8F4F9F4FAF4FC4
:101C5000B1E03ED0B4E03CD0670F781F891F9A1FD7
:101C6000A11D680F791F8A1F911DA11D6A0F711D8B
:101C7000811D911DA11D20D009F468943F912AE097
:101C8000269F11243019305D3193DEF6CF0108957F
:101C9000462F4770405D4193B3E00FD0C9F7F6CFB0
:101CA000462F4F70405D4A3318F0495D31FD405278
:101CB000419302D0A9F7EACFB4E0A695979587950E
:101CC00077956795BA95C9F70097610571050895ED
:101CD0009B01AC010A2E0694579547953795279599
:101CE000BA95C9F7620F731F841F951FA01D089531
:101CF0002F923F924F925F926F927F928F929F921C
:101D0000AF92BF92CF92DF92EF92FF920F931F9309
:101D1000CF93DF93CDB7DEB7CA1BDB0B0FB6F894BA
:101D2000DEBF0FBECDBF09942A88398848885F84FA
:101D30006E847D848C849B84AA84B984C884DF806B
:101D4000EE80FD800C811B81AA81B981CE0FD11D4F
:101D50000FB6F894DEBF0FBECDBFED010895F89425
:021D6000FFCFB3
:101D62003215BA01BF0100000001000000000000AE
:101D72002909000000000002000000003C090000E8
:101D820000009707400000000000000042656769FC
:101D92006E3A204D6F74696F6E206465746563746A
:101DA20065642E005475726E696E67204C4544203E
:101DB2006F6E2E2E2E00456E643A204D6F74696F41
:101DC2006E2064657465637465642E005475726E6A
:101DD200696E67204C4544206F66662E2E2E006D7C
:101DE20061696E28293A2054686973206973205208
:101DF200494F5421202856657273696F6E3A20321A
:101E02003031392E30342D646576656C2D3532379C
:101E12002D673965396135290A0069646C65006D81
:101E220061696E00537461636B20506F696E7465F3
:101E3200723A203078253034780A002A2A2A205231
:101E4200494F54206B65726E656C2070616E6963D8
:101E52003A0A25730A0A002A2A2A2068616C7465E4
:101E6200642E0A0A004641494C45442041535345D9
:101E72005254494F4E2E007374617465006E616D49
:101E8200650009706964207C20252D3231737C2025
:101E9200252D397351207C20707269207C20737447
:101EA20061636B202028207573656429207C206281
:101EB200617365206164647220207C206375727294
:101EC200656E7420202020200A0009253369207CB9
:101ED20020252D323073207C20252D387320252E8D
:101EE2003173207C20253369207C20253669202807
:101EF20025356929207C2025313070207C20253130
:101F02003070200A007C0053554D0009253573209E
:101F1200252D3231737C25313373253673202536D6
:101F2200692028253569290A0073746F7070656409
:101F320000736C656570696E6700626C206D757404
:101F4200657800626C20727800626C2073656E6442
:101F520000626C207265706C7900626C20616E792F
:101F6200666C00626C20616C6C666C00626C206D49
:101F7200626F7800626C20636F6E640072756E6EC1
:101F8200696E670070656E64696E6700C902D1028E
:101F9200DA02E302E902F102FA0203030C03140378
:101FA2001C0324037368656C6C3A20696E636F725C
:101FB200726563742071756F74696E670068656C11
:101FC20070004465736372697074696F6E00436F69
:101FD2006D6D616E6400252D3230732025730A0009
:101FE2002D2D2D2D2D2D2D2D2D2D2D2D2D2D2D2D1F
:101FF2002D2D2D2D2D2D2D2D2D2D2D2D2D2D2D2D0F
:102002002D2D2D2D2D2D2D007368656C6C3A2063BE
:102012006F6D6D616E64206E6F7420666F756E6495
:102022003A2025730A007265626F6F74005265620E
:102032006F6F7420746865206E6F64650070730042
:102042005072696E747320696E666F726D61746925
:102052006F6E2061626F75742072756E6E696E6745
:1020620020746872656164732E00C603CD03B807DD
:0E207200DD03E003BD070000000000000C00CD
:040000030000011CDC
:00000001FF
